:0400000082EF0DF08E
:1000080000C01FF001C01EF002C01DF003C01CF0AC
:1000180004C01BF005C01AF006C019F008C018F09B
:1000280009C017F00AC016F00BC015F0E1CF26F092
:10003800E2CF27F0E9CF24F0EACF25F0F5CF23F07F
:10004800F8CF20F0F7CF21F0F6CF22F0C1EC0CF07A
:1000580023C0F5FF20C0F8FF21C0F7FF22C0F6FF3C
:100068001FC000F01EC001F01DC002F01CC003F04C
:100078001BC004F01AC005F019C006F018C008F03B
:1000880017C009F016C00AF015C00BF024C0E9FF2C
:0E00980025C0EAFF26C0E1FF27C0E2FF1100ED
:1000A6008CC04DF08DC04EF08EC051F08FC052F016
:1000B600800E00019011006E008000C050F012000A
:1000C600000E056E040E066E8CC003F0000E046E64
:1000D6000336043603900336043603908DC000F0D1
:1000E600000E016E003601360090005003260150C6
:1000F600042203C001F004C002F00136019002366A
:1001060001360190023601C003F002C004F0043249
:100116000332049E04BC048E04320332049E04BCE3
:10012600048E03C000F004C001F0003600900136D2
:10013600003600900136055000260650012200C008
:1001460005F001C006F000C0E1FF01C0E2FFE69E37
:1001560000018D51000A12E18CC000F0000E016E04
:10016600003600900136420E0024E16E000E01209A
:10017600E26E05C0E6FF06C0E6FF11D08CC000F0B7
:10018600000E016E003600900136340E0024E16E3A
:10019600000E0120E26E05C0E6FF06C0E6FF05C0C0
:1001A600E1FF06C0E2FFE69C040E0524E16E000EA8
:0801B6000620E26EE68C120047
:0E01BE00800E00018C11006E00C050F0120087
:1001CC008CC04DF08DC04EF08EC04FF08FC051F0F2
:1001DC0090C052F0800E00019111006E00C050F0E2
:0201EC001200FF
:1001EE0020C401F01F0E01160150010A01E08BD050
:1001FE0004012451000A01E086D02151060A38E19B
:10020E002DD000016351010A12E1480E8C6F1B0EB6
:10021E008D6F000E8E6F120E8C27000E8D238E2387
:10022E00090E8F6F000E906F400E916FC8DF20D0B9
:10023E0000016351010A0DE1990E8C6F1B0E8D6F3B
:10024E00000E8E6F210E8F6F000E906F400E916F0D
:10025E00B6DF0ED000018C6BABDF0AD00401235148
:10026E00210ACFE02351220AE3E02351230AF2E0D0
:10027E0020C401F0600E0116050E006E005004E061
:10028E000132019EFF0FFBD70150010A01E03BD066
:10029E0027D039D038D0460E00018C6F000E8D6FEE
:1002AE00010E8E6F000E8F6F400E906FF5DE2BD00D
:1002BE0000018C6B7DDF23C446F025D000014C0E6F
:1002CE008C6F000E8D6F010E8E6F000E8F6F906B08
:1002DE00E3DE19D000018C6B6BDF22C44CF013D01F
:1002EE0004012151010AD5E02151090AD3E021511F
:1002FE00020AD1E021510A0ADBE02151030ADEE0B5
:08030E0021510B0AE7E0120087
:1003160000018851000A12E087C000F0000E016E4D
:10032600003600900136340E0024E96E000E0120DE
:10033600EA6EEECF04F0EECF05F011D087C000F0E4
:10034600000E016E003600900136420E0024E96E62
:10035600000E0120EA6EEECF04F0EECF05F0020E9D
:100366000424E16E000E0520E26E89C0E6FF8AC015
:10037600E6FF010E0424E16E000E0520E26E8BC03E
:10038600E6FF04C0E9FF05C0EAFFEECF00F004C0B7
:10039600E1FF05C0E2FF400E0014E66E04C0E9FF6F
:1003A60005C0EAFFEECF00F004C0E1FF05C0E2FFA2
:1003B600880E0010E66E8851000A1BE087C000F028
:1003C600000E016E003600900136340E0024026ED7
:1003D600000E0120036E02C0E9FF03C0EAFF040E0F
:1003E600EE18006E02C0E1FF03C0E2FF00C0E6FFA8
:1003F6001AD087C000F0000E016E0036009001365C
:10040600420E0024026E000E0120036E02C0E9FFB8
:1004160003C0EAFF040EEE18006E02C0E1FF03C03F
:10042600E2FF00C0E6FF04C000F005C001F01200C4
:10043600700EE16E0F0EE26E00018751E126D8B014
:10044600E22A88C0E6FF88A504D087C08CF08D6BB1
:1004560037DE88A305D087C08CF0010E8D6F30DEA5
:02046600120082
:10046800585215E0010E0001876F1E0E886FDFDFFE
:10047800010E876F886B53C089F054C08AF0400E14
:100488008B6F45DF00C047F001C048F014D0000171
:10049800010E876F1E0E886FCADF010E876F886B8B
:1004A80053C089F054C08AF0400E8B6F30DF00C013
:0804B80047F001C048F01200FA
:0804C000585201E094DE120025
:1004C8000B6A0A6A096A00500402F4CF09F0F3CFF4
:1004D80008F001500502F4CF0BF0F3CF0AF00050FA
:1004E8000502F3500926F4500A22E86A0B2201504B
:1004F8000402F3500926F4500A22E86A0B2208C0C5
:1005080000F009C001F00AC002F00BC003F01200AD
:1005180081C002F082C003F084C000F085C001F001
:10052800010E0001845F000E855B0050011009E098
:1005380002C0E1FF03C0E2FF83C0E6FF024A032ACC
:04054800EBD71200DB
:10054C000CD08CDF3CD03BD0B5DF39D038D037D095
:10055C0036D035D0000033D032D0000E00018219D5
:10056C0002E1010E8119EDE0000E821902E1020E8A
:10057C008119E9E0000E821902E1030E8119E4E011
:10058C008251000A02E1730E8119E0E08251000AE7
:10059C0002E1750E8119DBE08251000A02E1740E52
:1005AC008119D6E082513F0A02E1FF0E8119D1E098
:1005BC008251000A02E1720E8119CCE0CDD7010EF6
:0405CC00006E1200AB
:1005D00004012251010A0FE120C401F01F0E01168F
:1005E0000150000A08E1508E2151030A03E1010E77
:1005F000316E01D0316A2251000AD8A48BD020C4B8
:1006000001F01F0E01160150020AD8A483D024C4A1
:1006100001F00F0E01160150000AD8B47BD0508EA5
:1006200024BF16D024C403F00F0E031603C000F03D
:10063000000E016E003600900136420E0024E96E75
:10064000000E0120EA6EEECF04F0EECF05F015D0DB
:1006500024C403F00F0E031603C000F0000E016E59
:10066000003600900136340E0024E96E000E0120A1
:10067000EA6EEECF04F0EECF05F02151030A07E158
:1006800004C0E1FF05C0E2FF840EE66E43D024C43F
:1006900000F00F0E0016700E026E0F0E036E00506B
:1006A0000226D8B0032A02C0E9FF03C0EAFFFE0E0B
:1006B000EE14006EEECF01F0FF0E011602C0E1FF56
:1006C00003C0E2FF00C0E6FF01C0E6FF24AF11D087
:1006D00004C0E1FF05C0E2FFE66A040E0418006EE4
:1006E00000C004F004C0E1FF05C0E2FF400EE66E6A
:1006F00011D004C0E1FF05C0E2FF880EE66E040ED3
:100700000418006E00C004F004C0E1FF05C0E2FF61
:06071000C80EE66E1200A7
:1007160004012051800AD8A471D0C00E506E64D056
:10072600D40E006E1B0E016E000E026E00C04DF060
:1007360001C04EF002C04FF0120E516E000E526E06
:100746005DD0030E006E000E016E22C404F0000E92
:10075600056EB7DE490E0024E96E000E0120EA6E32
:10076600EECF4DF0EECF4EF0EECF4FF0020E4D2411
:10077600F66E000E4E20F76E000E4F20F86E090042
:10078600F5CF00F00900F5CF01F000C051F001C02F
:1007960052F034D02251575C23E3030E006E000E54
:1007A600016E22C404F0000E056E8BDE380E0024A6
:1007B600E96E000E0120EA6EEECF4DF0EECF4EF060
:1007C600EECF4FF04DC0F6FF4EC0F7FF4FC0F8FF1B
:1007D6000900F5CF00F000C051F0000E526E01D0B6
:1007E600506A0CD0506A0AD02351010A99E023516D
:0E07F600020AA7E02351030ACDE0F4D7120057
:10080400508E710E0001816F0F0E826F836B010E8B
:10081400846F000E856F7EDE620E816F000E826F24
:10082400836B010E846F000E856F74DE22C463F047
:100834006351000A03E1100E416E0FD0200E416E89
:10084400010E816F000E826F630E836F000E846F42
:0C085400010E856F000E866F77DE12002B
:100860000401286B296B42D0508E28813150010A37
:10087000D8B4288350D0508E4ED0508E24BF16D07E
:1008800024C403F00F0E031603C000F0000E016E27
:10089000003600900136420E0024E96E000E012061
:1008A000EA6EEECF04F0EECF05F015D024C403F0CD
:1008B0000F0E031603C000F0000E016E003600900C
:1008C0000136340E0024E96E000E0120EA6EEECFF0
:1008D00004F0EECF05F004C0E9FF05C0EAFFEECF5B
:1008E00001F001A402D0010E286F15D020C401F040
:1008F0001F0E01160150000AB7E020C401F01F0EC0
:1009000001160150010AB7E020C401F01F0E0116C4
:100910000150020AB2E050AE07D0280E4D6E040E10
:0A0920004E6E5080020E516E120060
:10092A00000E525C02E1080E515C10E251C003F065
:10093A0052C004F02950000A03E1010E296E05D0C5
:10094A002950010A02E1020E296E04D0080E036E34
:10095A00000E046E34C0E1FF35C0E2FFE69234C0F7
:10096A00E1FF35C0E2FFE69034C0E9FF35C0EAFF97
:10097A00EECF00F034C0E1FF35C0E2FF04500010B2
:10098A00E66E010E3424E16E000E3520E26E03C0DD
:10099A00E6FF0350515C006E04505258016E00C0CD
:1009AA0051F001C052F0280E326E040E336E50B070
:1009BA002FD0035004102BE04DC0F6FF4EC0F7FFB6
:1009CA004FC0F8FF0900F5CF00F032C0E1FF33C095
:1009DA00E2FF00C0E6FF324A332A010E4D24006EC0
:1009EA00000E4E20016E000E4F20026E00C04DF028
:1009FA0001C04EF002C04FF0010E035C006E000E03
:100A0A000458016E00C003F001C004F0D2D724D00C
:100A1A000350041021E04DC0E9FF4EC0EAFF32C086
:100A2A00E1FF33C0E2FFEECFE6FF324A332A010E7E
:100A3A004D24006E000E4E20016E00C04DF001C024
:100A4A004EF0010E035C006E000E0458016E00C0E9
:0A0A5A0003F001C004F0DCD7120025
:100A6400480E496E1B0E4A6E000E4B6EE60E386E33
:100A74001B0E396E000E3A6EBA0E3B6E1B0E3C6EA8
:100A8400000E3D6E710E3E6E1B0E3F6E000E406EEC
:020A940012004E
:0E0A9600160E6F6E9F0E6B6E7B0E696E120059
:100AA40000017B6B7C6B7D6B020E7825F66E000E6D
:100AB4007921F76E000E7A21F86E0900F5CF05F062
:100AC400030E7825F66E000E7921F76E000E7A215A
:100AD400F86E0900F5CF00F000C003F0000E046EBC
:100AE40003C001F0006A05500024066E000E0120C8
:100AF400076E78C008F079C009F07AC00AF0010ED8
:100B04000824F66E000E0920F76E000E0A20F86E17
:100B14000900F5CF01F00150020A1BE1060E08247A
:100B2400F66E000E0920F76E000E0A20F86E09001A
:100B3400F5CF01F001507B5D0CE2060E0824F66E41
:100B4400000E0920F76E000E0A20F86E0900F5CF9A
:100B54007BF0010E0824F66E000E0920F76E000EDD
:100B64000A20F86E0900F5CF01F00150040A1BE1D8
:100B7400080E0824F66E000E0920F76E000E0A20F7
:100B8400F86E0900F5CF01F001507B5D0CE2080E10
:100B94000824F66E000E0920F76E000E0A20F86E87
:100BA4000900F5CF7BF008C0F6FF09C0F7FF0AC0C3
:100BB400F8FF0900F5CF00F000507C25016E000E0F
:100BC4007D21026E01C07CF002C07DF00750025C02
:100BD40002E10650015C01E30FD008C0F6FF09C032
:100BE400F7FF0AC0F8FF0900F5CF00F0005008260F
:0E0BF400000E09220A2283D77BC000F01200F7
:0A0C0200D08EA28AA08AF28E1200A2
:100C0C006D9850BE49D05BAE28D0020E2C6E010EF2
:100C1C003424E16E000E3520E26EE66A34C0E1FF4A
:100C2C0035C0E2FFC80EE66E010E2A24E16E000EFE
:100C3C002B20E26E080EE66E020E2A24E16E000EE8
:100C4C002B20E26E280EE66E040EE66E2AC0E1FF43
:100C5C002BC0E2FFC80EE66E1ED0010E2A24E16EF8
:100C6C00000E2B20E26E080EE66E020E2A24E16EB8
:100C7C00000E2B20E26E200EE66E040EE66E2AC0ED
:100C8C00E1FF2BC0E2FF8C0EE66E34C0E1FF35C0F5
:100C9C00E2FF840EE66E7DD05BBE7BD0040120AFFC
:100CAC0051D05250275D02E15150265D04E226C41A
:100CBC0051F027C452F033DE010E2C6E010E2A24A3
:100CCC00E16E000E2B20E26E080EE66E020E2A2458
:100CDC00E16E000E2B20E26E200EE66E040EE66E28
:100CEC002AC0E1FF2BC0E2FF800EE66E286A010EDF
:100CFC002F24E16E000E3020E26E080EE66E020E1E
:100D0C002F24E16E000E3020E26E200EE66E040EF3
:100D1C00E66E2FC0E1FF30C0E2FF840EE66E010EDE
:100D2C00286E020E3424E16E000E3520E26E280E81
:100D3C00E66E040EE66E34C0E1FF35C0E2FFC80E6D
:100D4C00E66E27D0020E2C6E010E3424E16E000EDE
:100D5C003520E26EE66A34C0E1FF35C0E2FFC80E12
:100D6C00E66E010E2A24E16E000E2B20E26E080EB8
:100D7C00E66E020E2A24E16E000E2B20E26E280E87
:100D8C00E66E040EE66E2AC0E1FF2BC0E2FFC80E31
:040D9C00E66E1200ED
:100DA000010E2F24E96E000E3020EA6EEECF00F027
:100DB00000C002F0000E5D5C02E102505C5C03E2E8
:100DC0005CC002F00AD002505C5C006E000E5D5800
:100DD000016E00C05CF001C05DF0036A0250035C6C
:100DE0001CE2280EE96E040EEA6E0350E926D8B024
:100DF000EA2AEECF00F059C0E1FF5AC0E2FF00C07E
:100E0000E6FF010E5924006E000E5A20016E00C04C
:100E100059F001C05AF0032AE1D7000E006E5D5070
:100E2000005C02E15C50000828E2010E2A24E16E19
:100E3000000E2B20E26E080EE66E020E2A24E16EF2
:100E4000000E2B20E26E280EE66E040EE66E2FC01A
:100E5000E9FF30C0EAFFEECF00F000BC07D02AC0A7
:100E6000E1FF2BC0E2FFC80EE66E06D02AC0E1FF0C
:100E70002BC0E2FF880EE66E19D0010E2A24E16E27
:100E8000000E2B20E26E080EE66E020E2A24E16EA2
:100E9000000E2B20E26E200EE66E040EE66E2AC0D7
:0E0EA000E1FF2BC0E2FF840EE66E5B9E1200A7
:100EAE002C6A34C0E1FF35C0E2FFE66A040E341846
:100EBE00E16E35C0E2FF000EE21AE66A5BBE5B9E93
:020ECE00120010
:100ED00078C002F079C003F07BC000F07CC001F064
:100EE000010E00017B5F000E7C5B0050011009E0E9
:100EF00002C0E1FF03C0E2FF7AC0E6FF024A032A14
:040F0000EBD7120019
:100F0400D40E006E1B0E016E000E026E0E0E002437
:100F1400F66E000E0120F76E000E0220F86E090036
:100F2400F5CF03F003C004F00F0E0024F66E000E9C
:100F34000120F76E000E0220F86E0900F5CF01F0D3
:100F44000150035C12E2D40E006E1B0E016E000E03
:100F5400026E0F0E0024F66E000E0120F76E000ED6
:100F64000220F86E0900F5CF04F0D40E006E1B0EBB
:100F7400016E000E026E100E0024F66E000E0120AB
:100F8400F76E000E0220F86E0900F5CF01F0015053
:100F9400045C12E2D40E006E1B0E016E000E026E93
:100FA400100E0024F66E000E0120F76E000E0220D3
:0E0FB400F86E0900F5CF04F004C000F0120042
:100FC20020C401F0600E0116050E006E005004E010
:100FD2000132019EFF0FFBD70150000A01E065D0EC
:100FE20041D0508E080E416E60D08BEC03F05DD084
:100FF20008DC5BD0630E4D6E000E4E6E5080010E0B
:10100200516E508E52D02BDC50D0E8EC02F04DD015
:10101200620E006E000E016E24510026D8B0012A25
:1010220000C04DF001C04EF05080010E516E508E46
:101032003CD0508E620EE16E000EE26E2451E1262B
:10104200D8B0E22A22C4E6FF30D0020E0001816F3E
:10105200000E826F836B846B856B866BA6EC02F04D
:1010620024D023D004012151050ABBE02151060AF4
:10107200BCE02151090ABCE02151080ABBE0215120
:10108200000AC1E02151010AC0E02151030ABDE07A
:1010920021510A0ABDE021510B0ACBE02151070A76
:0C10A200D4E021510C0ADDE0DCD7120084
:1010AE002C50020A02E175DE1ED0FADE2850000A2C
:1010BE0019E1010E2A24E16E000E2B20E26E080EBD
:1010CE00E66E020E2A24E16E000E2B20E26E200E3A
:1010DE00E66E040EE66E2AC0E1FF2BC0E2FF8C0E18
:0810EE00E66E01D0286A120031
:1010F60034C0E9FF35C0EAFFEECF00F0000E00BCB9
:10110600010E0001806F040E3418006E00C034F02A
:101116004150080A0AE122C46EFF6E50000803E23D
:10112600100E416E02D0040E416E2C50010A28E1C9
:10113600020E3424E16E000E3520E26E280EE66EB5
:10114600040EE66E95EC04F02950020A07E134C05D
:10115600E1FF35C0E2FF840EE66E11D0000180513A
:10116600000A07E134C0E1FF35C0E2FFC80EE66EB3
:1011760006D034C0E1FF35C0E2FF880EE66E01D02E
:0411860093DE1200E2
:10118A0034C0E9FF35C0EAFFEECF00F000AE05D06B
:10119A0034C0E1FF35C0E2FFE66A296A2C6A516A67
:1011AA00526A506A09DF030E0001816F000E826FD6
:1011BA00836B846B856B866BA6EC02F022DD1200D2
:1011CA0000017451000A12E073C000F0000E016EB3
:1011DA00003600900136340E0024E96E000E01201C
:1011EA00EA6EEECF04F0EECF05F011D073C000F036
:1011FA00000E016E003600900136420E0024E96EA0
:10120A00000E0120EA6EEECF04F0EECF05F0020EDA
:10121A000424E16E000E0520E26E75C0E6FF76C07A
:10122A00E6FF010E0424E16E000E0520E26E77C08F
:10123A00E6FF04C0E9FF05C0EAFFEECF00F004C0F4
:10124A00E1FF05C0E2FF400E0014E66E04C0E9FFAC
:10125A0005C0EAFFEECF00F004C0E1FF05C0E2FFDF
:10126A00880E0010E66E7451000A1BE073C000F08D
:10127A00000E016E003600900136340E0024026E14
:10128A00000E0120036E02C0E9FF03C0EAFF040E4C
:10129A00EE18006E02C0E1FF03C0E2FF00C0E6FFE5
:1012AA001AD073C000F0000E016E003600900136AD
:1012BA00420E0024026E000E0120036E02C0E9FFF6
:1012CA0003C0EAFF040EEE18006E02C0E1FF03C07D
:1012DA00E2FF00C0E6FF04C000F005C001F0120002
:1012EA004150000A0BE16D6A696A4BEC05F084DC37
:0E12FA006DB602D06D86FCD7010E416E12005B
:10130800000E0001741902E1000E731902E1016A6E
:1013180009D073C0E9FF74C0EAFFEECF00F0016A9C
:0A13280000BE012A01C000F012000F
:10133200E8DD00C073F0480E0001786F1B0E796F74
:10134200000E7A6F52EC05F000C074F07351005C2D
:0E13520003E273C000F002D074C000F012007D
:1013600032EC05F0476A486A2D6A2E6A6A6A686A32
:101370004BEC05F06D8C6E6A710E0001786F0F0EEC
:10138000796F7A6B010E7B6F000E7C6FA1DD6D9C17
:10139000736B080E735D16E273C000F0000E016EF1
:1013A000003600900136003600900136000E002411
:1013B000E16E040E0120E26EE66AE66AE66AE66A1B
:1013C000732BE7D7160E706E68A603D0F70E68165B
:1013D000FBD7506A5B6A5C6A5D6A6D98080E346E72
:0A13E000040E356E636B416A1200C3
:1013EA002CD0030E816EC30E0C6ECD0E0D6E0D2E1B
:1013FA00FED70C2EFCD72ED0060E816EC30E0C6EB5
:10140A00CD0E0D6E0D2EFED70C2EFCD723D00C0E52
:10141A00816EC30E0C6ECD0E0D6E0D2EFED70C2EE8
:10142A00FCD718D0090E816EC30E0C6ECD0E0D6E50
:10143A000D2EFED70C2EFCD70DD000016E51000ADE
:10144A00D0E06E51010AD8E06E51020AE0E06E5116
:06145A00030AE8E01200A5
:101460002CD0030E836EC30E0C6ECD0E0D6E0D2EA2
:10147000FED70C2EFCD72ED0090E836EC30E0C6E39
:10148000CD0E0D6E0D2EFED70C2EFCD723D00C0EDC
:10149000836EC30E0C6ECD0E0D6E0D2EFED70C2E70
:1014A000FCD718D0060E836EC30E0C6ECD0E0D6EDB
:1014B0000D2EFED70C2EFCD70DD000016E51000A68
:1014C000D0E06E51010AD8E06E51020AE0E06E51A0
:0614D000030AE8E012002F
:1014D6002CD0030E816EC30E0C6ECD0E0D6E0D2E2E
:1014E600FED70C2EFCD72ED0090E816EC30E0C6EC5
:1014F600CD0E0D6E0D2EFED70C2EFCD723D00C0E66
:10150600816EC30E0C6ECD0E0D6E0D2EFED70C2EFB
:10151600FCD718D0060E816EC30E0C6ECD0E0D6E66
:101526000D2EFED70C2EFCD70DD000016E51000AF1
:10153600D0E06E51010AD8E06E51020AE0E06E5129
:06154600030AE8E01200B8
:10154C00200E415C03E36DB201D002D0006A23D0BF
:10155C0047C073F048C074F0D1DE00521BE1010E9D
:10156C004724E96E000E4820EA6EEECF00F000C072
:10157C0072F071C073F0746B6EC075F06FC076F062
:10158C0070C077F01CDE00C047F001C048F072C09C
:08159C0000F001D0006A12000A
:1015A4002CD0030E836EC30E0C6ECD0E0D6E0D2E5D
:1015B400FED70C2EFCD72ED0060E836EC30E0C6EF7
:1015C400CD0E0D6E0D2EFED70C2EFCD723D00C0E97
:1015D400836EC30E0C6ECD0E0D6E0D2EFED70C2E2B
:1015E400FCD718D0090E836EC30E0C6ECD0E0D6E93
:1015F4000D2EFED70C2EFCD70DD000016E51000A23
:10160400D0E06E51010AD8E06E51020AE0E06E515A
:06161400030AE8E01200E9
:10161A008BDE00C057F0010E586E6EC053F06FC0DB
:10162A0054F070C055F071C056F095DE010E016E8F
:0A163A000150010A01E154DE120024
:101644006984EF0E68166D82750E0001816F000EBD
:10165400826F836B846B856B866BA6EC02F0120041
:1016640070A019D02FC0E9FF30C0EAFFEECF01F01F
:101674000150800A0FE134C0E9FF35C0EAFFEECF24
:1016840001F00150840A06E12FC0E1FF30C0E2FFFF
:0C1694008C0EE66E7090DF0E68161200DF
:1016A000FD0E00016415016E026AFF0E0216000EA7
:1016B000021802E1000E01186BE17E0E6415016E46
:1016C00001C003F00332039E03C000F0000E016E60
:1016D000003600900136003600900136000E0024DE
:1016E000026E040E0120036E02C02FF003C030F022
:1016F00002C02AF003C02BF0040E2A18006E00C0AE
:101700002AF002C0E9FF03C0EAFFEECF00F000C0FC
:1017100001F03C0E01160132019E0132019E015082
:101720000D0A34E1020E2F24E96E000E3020EA6E1D
:10173000EECF01F0EECF02F00250040A02E1280ED3
:10174000011822E1020E2F24E16E000E3020E26E1D
:10175000200EE66E040EE66E7F6B080E7F5D14E2CF
:10176000200EE16E040EE26E7F51E126D8B0E22A2F
:10177000280EE96E040EEA6E7F51E926D8B0EA2AF7
:10178000EECFE6FF7F2BE9D700DD01D090DC0ED055
:10179000FD0E00016415016E026AFF0E0216000EB6
:0E17A000021802E1040E011801E1A5DC12009E
:1017AE0032EC05F0476A486A2D6A2E6A6A6A686AE0
:1017BE004BEC05F06D8C6E6A710E0001816F0F0E91
:1017CE00826F836B010E846F000E856F8CEC02F0BE
:1017DE006D9C7F6B080E7F5D16E27FC000F0000EE1
:1017EE00016E003600900136003600900136000E74
:1017FE000024E16E040E0120E26EE66AE66AE66AF5
:10180E00E66A7F2BE7D7160E706E68A603D0F70E2A
:10181E006816FBD7506A5B6A5C6A5D6A6D98080E43
:0C182E00346E040E356E636B416A1200CC
:04183A00A19A12005D
:10183E00740E0001816F000E826F836B846B856B5B
:10184E00866BA6EC02F06D92699468A403D0FB0E31
:06185E006816FBD7120022
:10186400936A93CF95FF836A83CF81FF000E0001B3
:101874006E6F050E6F6F400E706F050E716FCBDECD
:02188400120050
:101886000001686B6651685D22E2696B6551695DAE
:1018960010E26751010A05E1030E69156E6FDDDD81
:1018A60005D0030E000169156E6F79DE0001692B04
:1018B600EDD7030E0B6E080E0C6E770E0D6E0D2E09
:1018C600FED70C2EFCD70B2EFAD7682BDBD71200CF
:1018D6000900F5CFE6FF0006FBE10106F9E112007B
:1018E60000016B6B66516B5D48E26C6B65516C5D1C
:1018F60010E26751010A05E1030E6C156E6FADDD4E
:1019060005D0030E00016C156E6F49DE00016C2BCD
:10191600EDD7030E0B6E080E0C6E770E0D6E0D2EA8
:10192600FED70C2EFCD70B2EFAD76B6B69516B5D6D
:1019360016E26D6B68516D5D10E26A51010A05E1B0
:10194600030E6C156E6F89DD05D0030E00016C1554
:101956006E6F25DE00016D2BEDD76B2BE7D7030EDF
:101966000B6E080E0C6E770E0D6E0D2EFED70C2E1E
:0C197600FCD70B2EFAD76B2BB5D7120054
:101982004150010A07E16DBA05D0686A6980698829
:10199200020E416E68A405D069A403D0FB0E68163E
:1019A2004DDF6DA202D048DF78D068A018D069A0C0
:1019B20016D0FCDE040E416E200E0401026F040EEE
:1019C200036F080E016F000E0015006E00C000F4D8
:1019D2008C0E0011006E00C000F4FE0E681668A89E
:1019E20005D069A803D02DDEEF0E681668AC11D0C1
:1019F20069AC0FD0730E0001816F000E826F836B92
:101A0200846B010E856F000E866FA6EC02F0BF0E8E
:101A1200681668AA03D069AA01D023DE68A210D092
:101A220069A20ED0FF0E0001816F3F0E826F836BA1
:101A3200846B010E856F000E866FA6EC02F06A6A57
:101A4200040E415C02E2F8DE28D069A625D000012E
:101A52007E6B040E7E5D20E268A61AD06CCF64F025
:101A6200F70E6816780E6415016E0150000A02E145
:101A720016DE0DD0720E0001816F000E826F640EB1
:101A8200836F000E846F856B866BA6EC02F001D02B
:0C1A920003D000017E2BDDD7CFDE120058
:101A9E0053C06EF054C06FF0400E0001706F010E17
:061AAE00716F4DDD120016
:101AB4000001686B6651685D22E2696B6551695D7E
:101AC40010E26751010A05E1030E69156E6F01DD2D
:101AD40005D0030E000169156E6F85DC0001692BCA
:101AE400EDD7030E0B6E080E0C6E770E0D6E0D2ED9
:101AF400FED70C2EFCD70B2EFAD7682BDBD712009F
:101B0400AFDECBDF005201E1FCD700C565F001C5B3
:101B140066F002C567F0CCDF03C565F004C566F066
:101B240005C567F0AEDE00C565F001C566F002C507
:101B340067F003C568F004C569F005C56AF0D1DE35
:041B4400E0D7FFD710
:101B48000902290001010080320904000002030093
:101B5800000009210101000122210007058103403D
:091B680000010705010340000122
:101B71002803530074006500700070006500720056
:101B810043006F006E00740072006F006C00410032
:081B910064006D0069006E00A4
:101B99000600FF0901A10119012940150026FF00CE
:101BA90075089540810219012940750895409102EF
:011BB900C06B
:101BBA001A0353007400650070007000650072001B
:0A1BCA00410064006D0069006E0028
:101BD40012010002000000083300010001000102AC
:021BE4000001FE
:041BE60004030904E7
:020000040030CA
:0E000000210C1F1EFF8381FF0FC00FE00F4079
:00000001FF
